:1000000012C0189518951895189518951895189563
:100010001895189518950CC9189518951895189550
:100020001895189518958FE58DBFC8E3EAE04E2E18
:1000300084E08EBFD4E0F4E05F2EA89584B7082E4C
:10004000877F84BF88E1992781BD91BDEEEFF3E002
:10005000A0E6B0E088278D933197E9F783E089B96E
:1000600080E080BD88E18AB964D9662484B7877F3F
:1000700084BF8FE181BD87E081BD81B5886081BD8E
:10008000809163008068809363008B9ABF9A8CE2B2
:1000900080936000C9D089E080936000C5D088E279
:1000A00080936000C1D086E080936000BDD08CE07A
:1000B00080936000B9D029D980E090E0ADEBB0E04A
:1000C0008D939C93579AA5DD7894A895F894A0D227
:1000D0004BD6789441D081E0809364000091640015
:1000E000053010F009F00BC084E690E096D9A89591
:1000F000A4E6B0E08C918F5F8C9308F4EFCFADEB6A
:10010000B0E00D911C9141E050E0040F151FADEBE4
:10011000B0E00D931C93ADEBB0E00D911C91083550
:1001200052E0150710F009F001C013C0EED881B5F8
:10013000886181BD877F81BD84B7877F84BF88E167
:1001400081BD80E081BD81B5886081BD88EC90E093
:1001500064D9BBCFF894FFCF00916100013009F062
:1001600007C08FE919E0E0D8E2EDFEE1C8D818C079
:100170008FE91AE0D9D8A2E8B0E0BBD88FE910E146
:10018000D3D8E6EEFEE1BBD88FE914E1CDD8A9E8DB
:10019000B0E0AFD88FE91AE1C7D8ECEEFEE1AFD8F6
:1001A000A89500916200013009F007C08FE711E0C7
:1001B000BBD8E0EFFEE1A3D818C08FE712E0B4D8B7
:1001C000AFEAB0E096D88FE718E0AED8E6EEFEE1F1
:1001D00096D88FE71CE0A8D8A6EBB0E08AD88FE7C6
:1001E00012E1A2D8E4E0FFE18AD8A8958FE91CE1EA
:1001F0009BD8A3E6B0E08C9187FB0EF004C0E8E04A
:10020000FFE17DD803C0EAE0FFE179D8A3E6B0E0E2
:100210008C9187FB882780F9809580FBA3E6B0E06E
:100220008C9187F98C930895A0E6B0E08C9184FBC3
:10023000A8E3B0E08C9180F98C93A0E6B0E08C91BB
:1002400085FBA8E3B0E08C9183F98C93A0E6B0E045
:100250008C9186FBA8E3B0E08C9184F98C93A0E6A6
:10026000B0E08C9187FBA8E3B0E08C9185F98C938A
:10027000959AEF93FF93E4ECF0E0C3D8FF91EF91F0
:100280009598EF93FF93ECE4F0E0BBD8FF91EF91EA
:10029000A0E6B0E08C9180FBA8E3B0E08C9180F9FF
:1002A0008C93A0E6B0E08C9181FBA8E3B0E08C9148
:1002B00083F98C93A0E6B0E08C9182FBA8E3B0E0D8
:1002C0008C9184F98C93A0E6B0E08C9183FBA8E339
:1002D000B0E08C9185F98C93959AEF93FF93E4ECC1
:1002E000F0E08FD8FF91EF919598EF93FF93ECE4B6
:1002F000F0E087D8FF91EF910895B99A87E0809355
:1003000094004091940000E0041710F009F028C018
:100310009398A4E9B0E08C91A881B9815CDB51DBB2
:100320000C900822689409F4E894A8E3B0E08C915A
:1003300081F98C93EF93FF93E0E1F0E062D8FF91B5
:10034000EF91939AEF93FF93E0E1F0E05AD8FF9199
:10035000EF918091940081508093940008F0D1CF68
:100360000895B998C19A87E08093940040919400D1
:1003700000E0041710F009F028C09398EF93FF9362
:10038000E0E1F0E03ED8FF91EF91939AEF93FF9375
:10039000E6E0F0E036D8FF91EF91A6E3B0E08C9173
:1003A00081FBA4E9B0E08C91A881B98114DB09DB61
:1003B0000C9016F0092201C0082A0C92809194003A
:1003C00081508093940008F0D1CFEF93FF93E6E043
:1003D000F0E017D8FF91EF910895B99AC19A9398D8
:1003E00088E0809394004091940000E0041710F09E
:1003F00009F017C0939AEF93FF93E0E1F0E001D882
:10040000FF91EF919398EF93FF93E0E1F0E0F9D73C
:10041000FF91EF918091940081508093940008F0B7
:10042000E2CF01D00895B99AC19A939AEF93FF93BE
:10043000E0E1F0E0E6D7FF91EF91C198EF93FF93F1
:10044000E0E1F0E0DED7FF91EF919398EF93FF9317
:10045000E0E1F0E0D6D7FF91EF91939AEF93FF930D
:10046000E0E1F0E0CED7FF91EF91C19AEF93FF93D7
:10047000E0E1F0E0C6D7FF91EF919398EF93FF93FF
:10048000E0E1F0E0BED7FF91EF910895B99AC19AEB
:10049000EF93FF93E0E1F0E0B4D7FF91EF91939AEF
:1004A000EF93FF93E0E1F0E0ACD7FF91EF91C198BB
:1004B00008959398B99AC198EF93FF93E0E1F0E023
:1004C000A0D7FF91EF91939AEF93FF93E0E1F0E0D3
:1004D00098D7FF91EF91939808959398B99AC19AFC
:1004E000EF93FF93E0E1F0E08CD7FF91EF91939AC7
:1004F000EF93FF93E0E1F0E084D7FF91EF919398C1
:100500000895B9989398C19AEF93FF93E0E1F0E0D2
:1005100078D7FF91EF91939AEF93FF93E0E1F0E0AA
:1005200070D7FF91EF91A6E3B0E08C9181FBA88199
:10053000B9818C9180F98C93B99AC1989398089558
:10054000B99AC198EF93FF93E0E1F0E05AD7FF9199
:10055000EF91939AEF93FF93E0E1F0E052D7FF9190
:10056000EF91C19A08955FDF5A924A9286E0A42DD6
:10057000B52D8C9381E03FD8C0DE229681E078D6FD
:10058000A6E7B0E0BA93AA93BCDF2296A6E7B0E054
:100590000C9100FB0EF41AC05A924A9280E0A42DEE
:1005A000B52D8C9381E027D8A8DE229681E060D615
:1005B000A6E7B0E0BA93AA93A4DF2296A6E7B0E03C
:1005C0000C9100FB0EF401C000C000C0B99A939AD0
:1005D000C19A089528DF5A924A928EE1A42DB52D32
:1005E0008C9381E008D889DE229681E041D6A6E787
:1005F000B0E0BA93AA9385DF2296A6E7B0E00C910B
:1006000000FB0EF401C000C0B99A939AC19A0895F4
:1006100080E08093610080E08093650080E08093BB
:100620006600A1DFD7DFFFDE5A924A9283E0A42D55
:10063000B52D8C9381E0DFD760DE229681E018D65D
:10064000A6E7B0E0BA93AA935CDF2296A6E7B0E0F3
:100650000C9100FB0EF455C0B998C19AEF93FF932B
:10066000E0E1F0E0CED6FF91EF9180E093E8ADEAD3
:10067000B0E08D939C93A6E3B0E00C9101FB81E088
:100680000EF080E08F93ADEAB0E00D911C91003048
:100690005DE7150780E00CF481E09F9189238823B2
:1006A00009F40BC0ADEAB0E0E7D5EF93FF93E2E0C9
:1006B000F0E0A7D6FF91EF91DECFADEAB0E00D916B
:1006C0001C9100305DE715070CF401C016C0A5E6CB
:1006D000B0E0BA93AA9345DE2296EBDEA6E6B0E040
:1006E000BA93AA933EDE2296E4DEA7E6B0E0BA9380
:1006F000AA9337DE2296F1DE03C081E08093610089
:1007000003C081E080936100B99A939AC19AA5E6EB
:10071000B0E08C91A8E6B0E08D9388278C9398E0A8
:10072000A8E6B0E06CD7A8E6B0E00D911C91A6E673
:10073000B0E04D915527042B152BA8E6B0E00D93A2
:100740001C93EEEAFEE10BD9E8E6F0E0D190E08000
:100750008FEFE7FE8827F82E082FBED764D8EDE08C
:10076000F0E0AAE6B0E03CDAE2EBFEE1F8D8EAE637
:10077000F0E08ED78AD8EDE0F0E0AAE6B0E030DA1B
:10078000EAE6F0E0A2E7B0E02BDAA2EFB3E0AF9345
:10079000BF93E2E7F0E07CD74FD611E001E0BF91D4
:1007A000AF916AD9E2EFF3E0A7E7B0E014DAE7E748
:1007B000F0E0A2E8B0E0112721E005E0332711D9ED
:1007C000D2DE08DF30DE5A924A9285E0A42DB52DA4
:1007D0008C9381E010D791DD229681E049D5A6E780
:1007E000B0E0BA93AA938DDE2296A6E7B0E00C9112
:1007F00000FB0EF455C0B998C19AEF93FF93E0E166
:10080000F0E0FFD5FF91EF9180E093E8ADEAB0E032
:100810008D939C93A6E3B0E00C9101FB81E00EF078
:1008200080E08F93ADEAB0E00D911C9100305DE760
:10083000150780E00CF481E09F918923882309F457
:100840000BC0ADEAB0E018D5EF93FF93E2E0F0E023
:10085000D8D5FF91EF91DECFADEAB0E00D911C91BC
:1008600000305DE715070CF401C016C0A5E6B0E046
:10087000BA93AA9376DD22961CDEA6E6B0E0BA9380
:10088000AA936FDD229615DEA7E6B0E0BA93AA938D
:1008900068DD229622DE03C081E08093610003C000
:1008A00081E080936100B99A939AC19AA5E6B0E07D
:1008B0008C91A8E6B0E08D9388278C9398E0A8E609
:1008C000B0E09DD6A8E6B0E00D911C91A6E6B0E0A0
:1008D0004D915527042B152BA8E6B0E00D931C93E2
:1008E000E8E6F0E0D190E0808FEFE7FE8827F82E71
:1008F000082FF2D627D7E6EBFEE128D894D7EDE013
:10090000F0E0A0E9B0E06CD9EAEBFEE128D8E0E93C
:10091000F0E0BED6BAD7EDE0F0E0AEE6B0E060D9E8
:10092000EEEBFEE11CD8E8E6F0E0D190E0808FEF3E
:10093000E7FE8827F82E082FCFD647DAEDE0F0E063
:10094000A0E9B0E04DD9E0E9F0E0A7D6E2ECFEE1A5
:10095000FDD769D7EDE0F0E0A0E9B0E041D9E0E9EA
:10096000F0E09BD6EEE6F0E093D69ED7EDE0F0E027
:10097000AEE6B0E035D9E6ECFEE1F1D7EAE6F0E02C
:1009800087D683D7EDE0F0E0A2E7B0E029D9E8E62A
:10099000F0E0D190E0808FEFE7FE8827F82E082F57
:1009A0009BD6D0D6EAECFEE1D1D73DD7EDE0F0E022
:1009B000A0E9B0E015D9EEEAFEE1D1D7E0E9F0E038
:1009C00067D672D7EDE0F0E0A0E9B0E009D9E0E940
:1009D000F0E063D6E2E7F0E05BD625D7EDE0F0E0AB
:1009E000A2E7B0E0FDD8EEE6F0E057D6E2E7F0E0AF
:1009F0004FD65AD7EDE0F0E0A2E7B0E0F1D8E2E759
:100A0000F0E046D6EEECFEE1AAD7B2D708F005C07A
:100A1000A2E7B0E0EEECFEE1CCD7A2EFB3E0AF93FB
:100A2000BF93E2E7F0E034D607D511E002E0BF91D2
:100A3000AF9122D8E2EFF3E0A7E7B0E0CCD8E7E748
:100A4000F0E0A9E8B0E01127222706E03327C9D754
:100A50000895BE9A87E0809394004091940000E04E
:100A6000041710F009F028C0C798A4E9B0E08C91F1
:100A7000A881B981B0D7A5D70C900822689409F451
:100A8000E894A8E3B0E08C9186F98C93EF93FF9300
:100A9000E0E1F0E0B6D4FF91EF91C79AEF93FF93B6
:100AA000E0E1F0E0AED4FF91EF91809194008150AD
:100AB0008093940008F0D1CF0895BE98C69A87E03D
:100AC000809394004091940000E0041710F009F026
:100AD00028C0C798EF93FF93E0E1F0E092D4FF9134
:100AE000EF91C79AEF93FF93E6E0F0E08AD4FF918D
:100AF000EF91A6E3B0E08C9186FBA4E9B0E08C9185
:100B0000A881B98168D75DD70C9016F0092201C081
:100B1000082A0C928091940081508093940008F0F0
:100B2000D1CFEF93FF93E6E0F0E06BD4FF91EF912C
:100B30000895BE9AC69A939888E080939400409155
:100B4000940000E0041710F009F017C0C79AEF9363
:100B5000FF93E0E1F0E055D4FF91EF91C798EF9358
:100B6000FF93E0E1F0E04DD4FF91EF91809194008C
:100B700081508093940008F0E2CF01D00895BE9A8E
:100B8000C69AC79AEF93FF93E0E1F0E03AD4FF9161
:100B9000EF91C698EF93FF93E0E1F0E032D4FF913C
:100BA000EF91C798EF93FF93E0E1F0E02AD4FF9133
:100BB000EF91C79AEF93FF93E0E1F0E022D4FF9129
:100BC000EF91C69AEF93FF93E0E1F0E01AD4FF9122
:100BD000EF91C798EF93FF93E0E1F0E012D4FF911B
:100BE000EF910895BE9AC69AEF93FF93E0E1F0E08B
:100BF00008D4FF91EF91C79AEF93FF93E0E1F0E003
:100C000000D4FF91EF91C6980895C798BE9AC698F0
:100C1000EF93FF93E0E1F0E0F4D3FF91EF91C79AF7
:100C2000EF93FF93E0E1F0E0ECD3FF91EF91C798F1
:100C30000895C798BE9AC69AEF93FF93E0E1F0E05B
:100C4000E0D3FF91EF91C79AEF93FF93E0E1F0E0DB
:100C5000D8D3FF91EF91C7980895BE98C798C69AC8
:100C6000EF93FF93E0E1F0E0CCD3FF91EF91C79ACF
:100C7000EF93FF93E0E1F0E0C4D3FF91EF91A6E39F
:100C8000B0E08C9186FBA881B9818C9180F98C931E
:100C9000BE9AC698C7980895BE9AC698EF93FF93D8
:100CA000E0E1F0E0AED3FF91EF91C79AEF93FF93AD
:100CB000E0E1F0E0A6D3FF91EF91C69A08955FDFDF
:100CC0005A924A9286E0A42DB52D8C9381E093D45C
:100CD000C0DE229681E0CCD2A6E7B0E0BA93AA9318
:100CE000BCDF2296A6E7B0E00C9100FB0EF41AC020
:100CF0005A924A9280E0A42DB52D8C9381E07BD44A
:100D0000A8DE229681E0B4D2A6E7B0E0BA93AA9317
:100D1000A4DF2296A6E7B0E00C9100FB0EF401C020
:100D200000C000C0BE9AC79AC69A089528DF5A929A
:100D30004A928EE1A42DB52D8C9381E05CD489DE9E
:100D4000229681E095D2A6E7B0E0BA93AA9385DF18
:100D50002296A6E7B0E00C9100FB0EF401C000C0A3
:100D6000BE9AC79AC69A089580E08093620080E098
:100D70008093650080E080936600A1DFD7DFFFDE0F
:100D80005A924A9283E0A42DB52D8C9381E033D4FE
:100D900060DE229681E06CD2A6E7B0E0BA93AA9317
:100DA0005CDF2296A6E7B0E00C9100FB0EF455C084
:100DB000BE98C69AEF93FF93E0E1F0E022D3FF9153
:100DC000EF9180E093E8ADEAB0E08D939C93A6E3C9
:100DD000B0E00C9106FB81E00EF080E08F93ADEA6D
:100DE000B0E00D911C9100305DE7150780E00CF438
:100DF00081E09F918923882309F40BC0ADEAB0E01C
:100E00003BD2EF93FF93E2E0F0E0FBD2FF91EF9152
:100E1000DECFADEAB0E00D911C9100305DE7150723
:100E20000CF401C016C0A5E6B0E0BA93AA9345DE63
:100E30002296EBDEA6E6B0E0BA93AA933EDE2296B7
:100E4000E4DEA7E6B0E0BA93AA9337DE2296F1DE9D
:100E500003C081E08093620003C081E08093620060
:100E6000BE9AC79AC69AA5E6B0E08C91A8E6B0E013
:100E70008D9388278C9398E0A8E6B0E0C0D3A8E6CD
:100E8000B0E00D911C91A6E6B0E04D915527042BE2
:100E9000152BA8E6B0E00D931C93EEEAFEE15FD5BA
:100EA000E8E6F0E0D190E0808FEFE7FE8827F82EAB
:100EB000082F12D4B8D4EDE0F0E0AAE6B0E090D666
:100EC000E2EBFEE14CD5EAE6F0E0E2D3DED4EDE081
:100ED000F0E0AAE6B0E084D6EAE6F0E0A2E7B0E00F
:100EE0007FD6A2EFB3E0AF93BF93E2E7F0E0D0D3B9
:100EF000A3D211E001E0BF91AF91BED5E2EFF3E0E4
:100F0000A7E7B0E068D6E7E7F0E0AFEAB0E0112786
:100F100021E005E0332765D5D2DE08DF30DE5A92C6
:100F20004A9285E0A42DB52D8C9381E064D391DDA8
:100F3000229681E09DD1A6E7B0E0BA93AA938DDE18
:100F40002296A6E7B0E00C9100FB0EF455C0BE98C7
:100F5000C69AEF93FF93E0E1F0E053D2FF91EF9157
:100F600080E093E8ADEAB0E08D939C93A6E3B0E017
:100F70000C9106FB81E00EF080E08F93ADEAB0E0CB
:100F80000D911C9100305DE7150780E00CF481E0C5
:100F90009F918923882309F40BC0ADEAB0E06CD19E
:100FA000EF93FF93E2E0F0E02CD2FF91EF91DECFE0
:100FB000ADEAB0E00D911C9100305DE715070CF42F
:100FC00001C016C0A5E6B0E0BA93AA9376DD2296DA
:100FD0001CDEA6E6B0E0BA93AA936FDD229615DE7A
:100FE000A7E6B0E0BA93AA9368DD229622DE03C09A
:100FF00081E08093620003C081E080936200BE9A2A
:10100000C79AC69AA5E6B0E08C91A8E6B0E08D93A9
:1010100088278C9398E0A8E6B0E0F1D2A8E6B0E08B
:101020000D911C91A6E6B0E04D915527042B152B90
:10103000A8E6B0E00D931C93E8E6F0E0D190E080E4
:101040008FEFE7FE8827F82E082F46D37BD3E6EBF9
:10105000FEE17CD4E8D3EDE0F0E0A0E9B0E0C0D55B
:10106000EAEBFEE17CD4E0E9F0E012D30ED4EDE04F
:10107000F0E0AEE6B0E0B4D5EEEBFEE170D4E8E629
:10108000F0E0D190E0808FEFE7FE8827F82E082F60
:1010900023D39BD6EDE0F0E0A0E9B0E0A1D5E0E9F4
:1010A000F0E0FBD2E2ECFEE151D4BDD3EDE0F0E0A4
:1010B000A0E9B0E095D5E0E9F0E0EFD2EEE6F0E0AF
:1010C000E7D2F2D3EDE0F0E0AEE6B0E089D5E6ECB1
:1010D000FEE145D4EAE6F0E0DBD2D7D3EDE0F0E084
:1010E000A2E7B0E07DD5E8E6F0E0D190E0808FEFB8
:1010F000E7FE8827F82E082FEFD224D3EAECFEE192
:1011000025D491D3EDE0F0E0A0E9B0E069D5EEEAB6
:10111000FEE125D4E0E9F0E0BBD2C6D3EDE0F0E09B
:10112000A0E9B0E05DD5E0E9F0E0B7D2E2E7F0E0B9
:10113000AFD279D3EDE0F0E0A2E7B0E051D5EEE632
:10114000F0E0ABD2E2E7F0E0A3D2AED3EDE0F0E026
:10115000A2E7B0E045D5E2E7F0E09AD2EEECFEE19E
:10116000FED306D408F005C0A2E7B0E0EEECFEE145
:1011700020D4A2EFB3E0AF93BF93E2E7F0E088D2D0
:101180005BD111E002E0BF91AF9176D4E2EFF3E0E2
:10119000A7E7B0E020D5E7E7F0E0A6EBB0E0112745
:1011A000222706E033271DD40895A895ECE0FFE13F
:1011B00091D096D00895A89500916200003009F072
:1011C0000BC0AFEAB0E080D0A2EFB3E0E2E6F0E01F
:1011D000B8D478D085D00AC0A2E8B0E075D0A2EF2C
:1011E000B3E0E1E6F0E0ADD46DD07AD00895A895F3
:1011F00000916200003009F00BC0A6EBB0E064D0B3
:10120000A2EFB3E0E2E6F0E09CD45CD069D00AC083
:10121000A9E8B0E059D0A2EFB3E0E1E6F0E091D464
:1012200051D05ED00895E0E1FFE154D059D0089547
:10123000F894A895AFEBB0E031E027D0AFEBB0E089
:10124000E0E2FFE1D3D409F002C0AFDF0FC0E2E279
:10125000FFE1CCD409F002C0AEDF08C0E4E2FFE158
:10126000C5D409F002C0C3DF01C0DDDF7894189552
:10127000481A8827580A0895ED91FC91EF5FFF4FB7
:10128000FC93EE930895A2EFB3E018D0883091F06C
:101290008D3039F03323C9F38D933A9563FE23D013
:1012A000F4CF63FC04C08DE01ED08AE01CD08827F8
:1012B0008C93089518D011973395E7CF5F9BFECF9D
:1012C0008CB10895A2EFB3E08D91882311F00BD07B
:1012D000FBCF089537D3802D11F005D0FBCF0895B3
:1012E0008DE001D08AE05D9BFECF8CB90895A2EF1E
:1012F000B3E08D91882311F05ED0FBCF089522D307
:10130000802D11F058D0FBCF089581E05AD00ED037
:1013100080E857C08FE7213039F08FE9223021F083
:101320008FEB233009F08FED810F4BC083E09927BD
:1013300074C08AEF90E071D0BD9ABC9ABB9AB89AFB
:101340008D9A8E9A969885E090E067D09598C5988A
:10135000C498C39AC09A959AEF93FF93E4ECF0E097
:1013600050D0FF91EF91959855D0959AEF93FF93B8
:10137000E4ECF0E046D0FF91EF9195984BD0959A30
:10138000EF93FF93E4ECF0E03CD0FF91EF91959860
:1013900041D0C098959AEF93FF93E4ECF0E031D000
:1013A000FF91EF91959836D088E20BD08EE009D06E
:1013B00086E007D00895969A829505D004D02AD069
:1013C00008959698F9CF859510F4C09A01C0C098F9
:1013D000859510F4C39A01C0C398859510F4C49AFA
:1013E00001C0C498859510F4C59A01C0C598959A16
:1013F000EF93FF93E4ECF0E004D0FF91EF91959828
:1014000008953197F1F70895689462F80895E89483
:1014100062F8089581E090E000C0EF93FF93EE271B
:10142000E82BE92B31F0E0EDF7E03197F1F7019788
:10143000D1F7FF91EF9108958DE207FD8D938F2DE8
:10144000881F802F881F8F57082F6894F7F8802FE8
:1014500087FF15C080958395082F80E38D938EE2DA
:101460008D93802F815228F080E38D9399279C9350
:10147000089544270A95802F09F192D01FC0805209
:1014800030F09EE49D9381E48D939D93EFCF4427AC
:10149000DF92EF92FF920F938FE1801B11F0082FE4
:1014A0007FD085D09EE29D930F91FF90EF90DF90CB
:1014B00044270395003209F4D7CF27D03F93E0E4C7
:1014C000F5E138E12F2D1E2D0D2DFF24EE24DD2416
:1014D0004427000F111F221F88F42F923F9232D20F
:1014E000102C30D2202C2ED2302C2CD23197410D02
:1014F000D21CE31CF01C3F902F9001C03396319614
:101500003A9539F73F9107D0B3CFDD0CEE1CFF1CA5
:101510000A95D9F70895002719E058D08F93802BAA
:1015200011F0039501C08F911A95B9F7802F882388
:1015300009F49ACF8F91805D8D930A95D9F796CF54
:101540000065CD1D80B2E60E40597307A0ACB9030B
:1015500050D6DC01286BEE0094357700CA9A3B0028
:1015600065CD1D00B2E60E0059730700ACB903004B
:10157000D6DC01006BEE0000357700009A3B0000DE
:10158000CD1D0000E60E000073070000B903000047
:10159000DC010000EE000000770000003B000000CE
:1015A000F694E794D79447950A95D1F708950027C4
:1015B0000DD08F9303958F2D8E298D29842BC1F704
:1015C0008F91805D8D930A95D9F750CF1F930F931C
:1015D000002710E2440FDD1CEE1CFF1C001F802FB3
:1015E0009AE0890B10F0082F43951A9599F7802FF0
:1015F0000F911F910895480E8827581E0895903026
:1016000041F00D911C91000F111F9A95E1F71C9369
:101610000E9308953DD0992711278F2D880F80E8CC
:10162000F82A802F881F08F41FEF41F08F57082FEA
:1016300007FD04C0003240F08FEF01C08827982FCB
:10164000D82EE82EF82E09C08FE1801B082FF694C3
:10165000E794D79497950A95D1F7112351F0909577
:10166000D094E094F09481E0980F8827D81EE81E6B
:10167000F81E0F2DFE2CED2CD92E0895D094E09459
:10168000F09491E0D90E9927E91EF91E109508955E
:10169000D190E190F1900191089521913191419182
:1016A00051910895102F90E8FF0C001F0927990F02
:1016B000F7941078652F90E8440F551F5927990F1C
:1016C0004795607800380895FF0C90E89027110F37
:1016D0009795F794092F0895102FBD2CDE2CEF2C31
:1016E000F02E11234AF4B094D094E094F0949FEF3C
:1016F000B91AD90AE90AF90A0EE1FF2039F4FE2CD9
:10170000ED2CDB2CBB240850C2F76BC032F00A95DD
:10171000BB0CDD1CEE1CFF1CF9CF01D0D5CFB7FEF2
:10172000089590E8B91611F4D0FE08959FEFD91AE4
:10173000E90AF90A09F403950895DD92ED92FD9204
:101740000C930895502F2D2D3E2D4F2D612F089570
:101750002DEC3CEC4CEC5DE366270FC099DFF2DF2B
:10176000DD24EE2490E8F92E0FE307C096DF05C0D4
:101770002227332740E251E46627552351F1002305
:1017800081F190DF71F11627005850580894050B2D
:1017900018F407FD03C025C007FD23C04695379503
:1017A0002795F694E794D79422D0FF202AF0DD0CF9
:1017B000EE1CFF1C015073F09D2D969548F0DD2026
:1017C0003AF4EE202AF491E0D90E9927E91EF91E89
:1017D0007BCF07C09FE7092FF92A9FEFD92EE92E6B
:1017E0000895DD24EE24FF240027112708959F92F9
:1017F0009924AA24BB2488E1D216E306F40628F033
:10180000D21AE30AF40A089401C08894991CAA1C0D
:10181000BB1CDD0CEE1CFF1C8A9571F7D92CEA2C41
:10182000FB2C9F9008953EDFE1F25038D1F216274D
:10183000005850580894051F12F418F4CBCF08F044
:10184000D0CF0BD0FF202AF0BB0CDD1CEE1CFF1C00
:101850003BCF0F5F0BF4BECF37CF9F929924AA24C2
:10186000BB24992788E1990CAA1CBB1CDD1CEE1C2B
:10187000FF1C30F4920EA31EB41ED91EE91EF91EE1
:101880008A9589F79F90089508DF0CDF503829F07A
:1018900090E869270CC00AF045D016CF5FE32227F5
:1018A0003327442701C0F9DEFDDE5038B1F300389C
:1018B00099F3902F951B8BF312F434D0FACF983113
:1018C00018F0222733274427983028F0232F342F6D
:1018D00044279850F9CF992329F0469537952795B5
:1018E0009A95D9F7912F962742F014D0B0F6F79435
:1018F000E794D7940F5F8BF66DCF10D051F008F4BA
:10190000BDDEFF2052F2DD0CEE1CFF1C0150CBF7B8
:1019100061CF67CFD20EE31EF41E0895D21AE30AF8
:10192000F40A0895DF92EF92FF920F931F93D22E45
:10193000E32EF42E052F162F6F915F914F913F915B
:101940002F910895C895319600200895FBDFD02C83
:10195000F9DFE02CF7DFF02CF5DF002D0895F2DF42
:10196000202DF0DF302DEEDF402DECDF502D0895DF
:1019700007FB00680EF40F7757FB50680EF45F7793
:1019800007FD02C057FF05C0D216E306F40605079F
:1019900008952D153E054F055007089500240D2884
:1019A0000E280F28002A0020089591E005C092E03B
:1019B00003C094E001C098E0C5DF0D929A95E1F76D
:1019C000089591E0882321F08894991F8A95E9F77A
:1019D000892F90950895883018F011968850FBCF84
:1019E00008952E2E3F2E992781918D3209F09395DF
:1019F0008823D1F79A95E22DF32D112361F0091771
:101A000018F011F0101B01C0191B28F021F080E222
:101A10008D931A95E9F780818D3219F48D93319663
:101A200004C0222311F08BE28D93091738F031F0B6
:101A3000091B21F080E38D930A95E9F781918D933D
:101A40008823E1F7332351F0EA2FFB2F31963395AA
:101A50008E9182933A95E1F78EE28C9308959927BF
:101A60008D9193958823E1F7939511968C93119717
:101A70008E919A95D1F70895EA2FFB2F00244C916F
:101A80008D9103948E32E1F711248D911394882364
:101A9000E1F71A94101640F41197202F211923957D
:101AA00080E38D932A95E9F7113039F59927AE2F08
:101AB000BF2FA00DB91FA00FB91F8C919C93853328
:101AC00008F421C031E08E918E32E9F38D3241F07D
:101AD000830F8A3319F480E331E001C033278C93FC
:101AE000AE1789F7332341F0AE2FBF2FB8DF81E364
:101AF0004D3209F43196808308958827E00DF81F50
:101B0000E00FF81F80830895000F111F221F331F5D
:101B1000089500951095209530950F5F1F4F2F4F1A
:101B20003F4F0895019110810EC0019111912191B3
:101B300030810BC00191108117FF05C03FEF2FEFDF
:101B400004C0008111272227332737FF03C0E1DFBC
:101B50008DE28D93CF93DF93CF92DF92EF92AA2401
:101B6000BB24CC24DD24EE2440E2CAE0DD2755E08E
:101B700093E38881890F87FD9F7083FD907F891B88
:101B800089935A95A9F7C0DFAA1CBB1CCC1CDD1C8D
:101B9000EE1C4A9551F7E894EFE0FF2782910ED0B2
:101BA000EB30E0F71EF068948A2D0CD088278D93D7
:101BB000EF90DF90CF90DF91CF910895982F82958D
:101BC00001D0892F8F70805D26F0803309F408954D
:101BD00068948D93089581918D938823E1F70895FA
:101BE00094E081918D939A95E1F70895689401C0EE
:101BF000E894AF93BF938D9116F0919102C0A2DE4D
:101C0000902D891718F011F48823A9F7BF91AF918F
:101C10000895689463F808953BDD44DD0395AAF0C8
:101C200087E1DD0CEE1CFF1C8A9589F00A95CAF746
:101C3000FF205AF000240D280E280F28002039F02C
:101C40000A95DD0CEE1CFF1CDAF70A953DCDC9CDD7
:101C5000C8CD1EDD0023E2F3A1DE19F4BBDD006870
:101C6000089585E00CD1FF0C001F04830FE7069553
:101C7000F79418D1506818DE60DD139721E438E737
:101C800043ED5BEBD0DD27E831ED43E15DE399D037
:101C90002EE03CE343EC5DEB94D022E83DEA4BE2DE
:101CA0005EE38FD02CEE32E846E75EEB8AD020E987
:101CB00031EE49EA5EE385D020E83FEE4FEF5EEB80
:101CC00080D024EC3FEF4FE75FE37BD036DD139706
:101CD00084818F5799F02AF4D82E0FEFE02EF02E42
:101CE00004C0D82EEE24FF240027F6DC28E132E7DA
:101CF00041E35FE398DDD1DC3497D6DDCDC06ADD0A
:101D0000CBC0C6DC86E0BBD005830F772BE33AEA75
:101D100048EB5FE388DD11DD139741D028F485811E
:101D200088236AF75EDDB8C08F778483B1DC34978F
:101D300074DF03DD139723E632E446E357EB73DDEC
:101D400029ED37EA4AE159E33CD026E538E14EEA8D
:101D50005AEB37D026E53CE84DE15CE332D02DEC80
:101D600037E543E65DEB2DD02DEE3DEF45E75EE335
:101D700028D028E132E741E35FEB23D093D094DD14
:101D8000E1DCDD24EE24FF2404818FE7080F0695B3
:101D9000F794F3DC8581881F08F4E1DC7DC082DCE8
:101DA0008827039512F48894089507301AF0812F3C
:101DB00008940895FF1C881F0A95E2F7812B8894E8
:101DC000089572DD6ADC34972ECD0F93FF92EF9267
:101DD000EDB7FEB7DF925F934F933F93ADB7BEB7BA
:101DE0002F9306D0EDB7FEB73896EDBFFEBF08952E
:101DF00088278A93FA93EA93BA93AA9349DCEA2F45
:101E0000FB2F4BDC4FDC503819F4003869F132C03D
:101E1000003819F457FD23C024C00F3729F15F376C
:101E200019F117FF0DC0E881F981F4DB8827D0FA9A
:101E300087F98C8351DCE881F9812FDC99DDA1F4ED
:101E4000EA81FB8125DC0F7705DFE881F98125DC5C
:101E5000EADC58DF8C8187FB07F9259608950FE7A8
:101E600001C00027882702C00FE78FEFF82EE82E69
:101E7000D82EF3CF0FE380E8F82E8827F8CF0FB6DF
:101E8000F8944A925A92E42DF52DA42DB52D480EC2
:101E90008827581E0FBE08950FB6F89459904990A0
:101EA0000FBE08955FE340E83327222708950AD73D
:101EB000233C00002042BD52163DC5FE02400000FA
:101EC0000040F624D6B50000C841ACC5A7380000D4
:101ED0000000202020205348543131204E43202040
:101EE00020202020000020432C200000252020005E
:101EF000202020205348543731204E4320202020DA
:101F000020200000252000002B002D00435233002C
:101F1000556E6B6E6F776E20436F6D6D616E6400F2
:061F2000560054004600CB
:00000001FF
